{
  "_format": "hh3-artifact-1",
  "contractName": "SourceOracle",
  "sourceName": "contracts/src/oracle.sol",
  "abi": [
    {
      "anonymous": false,
      "inputs": [
        {
          "indexed": true,
          "internalType": "uint256",
          "name": "id",
          "type": "uint256"
        },
        {
          "indexed": false,
          "internalType": "string",
          "name": "name",
          "type": "string"
        }
      ],
      "name": "SourceCreated",
      "type": "event"
    },
    {
      "anonymous": false,
      "inputs": [
        {
          "indexed": true,
          "internalType": "uint256",
          "name": "id",
          "type": "uint256"
        },
        {
          "indexed": false,
          "internalType": "uint256",
          "name": "newValue",
          "type": "uint256"
        }
      ],
      "name": "SourceValueUpdated",
      "type": "event"
    },
    {
      "inputs": [
        {
          "components": [
            {
              "internalType": "string",
              "name": "name",
              "type": "string"
            },
            {
              "internalType": "uint256",
              "name": "value",
              "type": "uint256"
            },
            {
              "internalType": "string",
              "name": "unit",
              "type": "string"
            },
            {
              "internalType": "uint256",
              "name": "decimal",
              "type": "uint256"
            }
          ],
          "internalType": "struct SourceOracle.SourceInput",
          "name": "input",
          "type": "tuple"
        }
      ],
      "name": "createSource",
      "outputs": [
        {
          "internalType": "uint256",
          "name": "",
          "type": "uint256"
        }
      ],
      "stateMutability": "nonpayable",
      "type": "function"
    },
    {
      "inputs": [
        {
          "internalType": "uint256",
          "name": "sourceId",
          "type": "uint256"
        }
      ],
      "name": "getSource",
      "outputs": [
        {
          "components": [
            {
              "internalType": "uint256",
              "name": "id",
              "type": "uint256"
            },
            {
              "internalType": "string",
              "name": "name",
              "type": "string"
            },
            {
              "internalType": "uint256",
              "name": "value",
              "type": "uint256"
            },
            {
              "internalType": "uint256",
              "name": "timestamp",
              "type": "uint256"
            },
            {
              "internalType": "string",
              "name": "unit",
              "type": "string"
            },
            {
              "internalType": "uint256",
              "name": "decimal",
              "type": "uint256"
            }
          ],
          "internalType": "struct SourceOracle.Source",
          "name": "",
          "type": "tuple"
        }
      ],
      "stateMutability": "view",
      "type": "function"
    },
    {
      "inputs": [],
      "name": "nextSourceId",
      "outputs": [
        {
          "internalType": "uint256",
          "name": "",
          "type": "uint256"
        }
      ],
      "stateMutability": "view",
      "type": "function"
    },
    {
      "inputs": [],
      "name": "owner",
      "outputs": [
        {
          "internalType": "address",
          "name": "",
          "type": "address"
        }
      ],
      "stateMutability": "view",
      "type": "function"
    },
    {
      "inputs": [
        {
          "internalType": "uint256",
          "name": "sourceId",
          "type": "uint256"
        },
        {
          "internalType": "uint256",
          "name": "newValue",
          "type": "uint256"
        }
      ],
      "name": "updateSourceValue",
      "outputs": [],
      "stateMutability": "nonpayable",
      "type": "function"
    }
  ],
  "bytecode": "0x6080604052600180553480156012575f5ffd5b50610d20806100205f395ff3fe608060405234801561000f575f5ffd5b5060043610610055575f3560e01c8063519f1a18146100595780638da5cb5b14610075578063926061f014610093578063bd6c27eb146100b1578063f1f99f2c146100e1575b5f5ffd5b610073600480360381019061006e91906105bd565b610111565b005b61007d6101b9565b60405161008a919061063a565b60405180910390f35b61009b6101dd565b6040516100a89190610662565b60405180910390f35b6100cb60048036038101906100c6919061069d565b6101e3565b6040516100d89190610662565b60405180910390f35b6100fb60048036038101906100f691906106e4565b610389565b604051610108919061081b565b60405180910390f35b5f60025f8481526020019081526020015f2090505f815f01540361016a576040517f08c379a000000000000000000000000000000000000000000000000000000000815260040161016190610895565b60405180910390fd5b818160020181905550428160030181905550827fd37bba3a9a84b8cd3f8fe648e633262413baa154154e26de4614197445189236836040516101ac9190610662565b60405180910390a2505050565b5f5f9054906101000a900473ffffffffffffffffffffffffffffffffffffffff1681565b60015481565b5f5f60015f8154809291906101f7906108e0565b9190505590506040518060c0016040528082815260200184805f019061021d9190610933565b8080601f0160208091040260200160405190810160405280939291908181526020018383808284375f81840152601f19601f820116905080830192505050505050508152602001846020013581526020014281526020018480604001906102849190610933565b8080601f0160208091040260200160405190810160405280939291908181526020018383808284375f81840152601f19601f820116905080830192505050505050508152602001846060013581525060025f8381526020019081526020015f205f820151815f015560208201518160010190816103019190610bbf565b506040820151816002015560608201518160030155608082015181600401908161032b9190610bbf565b5060a08201518160050155905050807f992b96b724ac3a9a920b72ef1a14b0594ab1258442fa778166403fc96faedfec84805f019061036a9190610933565b604051610378929190610cc8565b60405180910390a280915050919050565b610391610550565b5f60025f8481526020019081526020015f205f0154036103e6576040517f08c379a00000000000000000000000000000000000000000000000000000000081526004016103dd90610895565b60405180910390fd5b60025f8381526020019081526020015f206040518060c00160405290815f820154815260200160018201805461041b906109ef565b80601f0160208091040260200160405190810160405280929190818152602001828054610447906109ef565b80156104925780601f1061046957610100808354040283529160200191610492565b820191905f5260205f20905b81548152906001019060200180831161047557829003601f168201915b5050505050815260200160028201548152602001600382015481526020016004820180546104bf906109ef565b80601f01602080910402602001604051908101604052809291908181526020018280546104eb906109ef565b80156105365780601f1061050d57610100808354040283529160200191610536565b820191905f5260205f20905b81548152906001019060200180831161051957829003601f168201915b505050505081526020016005820154815250509050919050565b6040518060c001604052805f8152602001606081526020015f81526020015f8152602001606081526020015f81525090565b5f5ffd5b5f5ffd5b5f819050919050565b61059c8161058a565b81146105a6575f5ffd5b50565b5f813590506105b781610593565b92915050565b5f5f604083850312156105d3576105d2610582565b5b5f6105e0858286016105a9565b92505060206105f1858286016105a9565b9150509250929050565b5f73ffffffffffffffffffffffffffffffffffffffff82169050919050565b5f610624826105fb565b9050919050565b6106348161061a565b82525050565b5f60208201905061064d5f83018461062b565b92915050565b61065c8161058a565b82525050565b5f6020820190506106755f830184610653565b92915050565b5f5ffd5b5f608082840312156106945761069361067b565b5b81905092915050565b5f602082840312156106b2576106b1610582565b5b5f82013567ffffffffffffffff8111156106cf576106ce610586565b5b6106db8482850161067f565b91505092915050565b5f602082840312156106f9576106f8610582565b5b5f610706848285016105a9565b91505092915050565b6107188161058a565b82525050565b5f81519050919050565b5f82825260208201905092915050565b8281835e5f83830152505050565b5f601f19601f8301169050919050565b5f6107608261071e565b61076a8185610728565b935061077a818560208601610738565b61078381610746565b840191505092915050565b5f60c083015f8301516107a35f86018261070f565b50602083015184820360208601526107bb8282610756565b91505060408301516107d0604086018261070f565b5060608301516107e3606086018261070f565b50608083015184820360808601526107fb8282610756565b91505060a083015161081060a086018261070f565b508091505092915050565b5f6020820190508181035f830152610833818461078e565b905092915050565b5f82825260208201905092915050565b7f736f75726365206e6f7420666f756e64000000000000000000000000000000005f82015250565b5f61087f60108361083b565b915061088a8261084b565b602082019050919050565b5f6020820190508181035f8301526108ac81610873565b9050919050565b7f4e487b71000000000000000000000000000000000000000000000000000000005f52601160045260245ffd5b5f6108ea8261058a565b91507fffffffffffffffffffffffffffffffffffffffffffffffffffffffffffffffff820361091c5761091b6108b3565b5b600182019050919050565b5f5ffd5b5f5ffd5b5f5ffd5b5f5f8335600160200384360303811261094f5761094e610927565b5b80840192508235915067ffffffffffffffff8211156109715761097061092b565b5b60208301925060018202360383131561098d5761098c61092f565b5b509250929050565b7f4e487b71000000000000000000000000000000000000000000000000000000005f52604160045260245ffd5b7f4e487b71000000000000000000000000000000000000000000000000000000005f52602260045260245ffd5b5f6002820490506001821680610a0657607f821691505b602082108103610a1957610a186109c2565b5b50919050565b5f819050815f5260205f209050919050565b5f6020601f8301049050919050565b5f82821b905092915050565b5f60088302610a7b7fffffffffffffffffffffffffffffffffffffffffffffffffffffffffffffffff82610a40565b610a858683610a40565b95508019841693508086168417925050509392505050565b5f819050919050565b5f610ac0610abb610ab68461058a565b610a9d565b61058a565b9050919050565b5f819050919050565b610ad983610aa6565b610aed610ae582610ac7565b848454610a4c565b825550505050565b5f5f905090565b610b04610af5565b610b0f818484610ad0565b505050565b5b81811015610b3257610b275f82610afc565b600181019050610b15565b5050565b601f821115610b7757610b4881610a1f565b610b5184610a31565b81016020851015610b60578190505b610b74610b6c85610a31565b830182610b14565b50505b505050565b5f82821c905092915050565b5f610b975f1984600802610b7c565b1980831691505092915050565b5f610baf8383610b88565b9150826002028217905092915050565b610bc88261071e565b67ffffffffffffffff811115610be157610be0610995565b5b610beb82546109ef565b610bf6828285610b36565b5f60209050601f831160018114610c27575f8415610c15578287015190505b610c1f8582610ba4565b865550610c86565b601f198416610c3586610a1f565b5f5b82811015610c5c57848901518255600182019150602085019450602081019050610c37565b86831015610c795784890151610c75601f891682610b88565b8355505b6001600288020188555050505b505050505050565b828183375f83830152505050565b5f610ca7838561083b565b9350610cb4838584610c8e565b610cbd83610746565b840190509392505050565b5f6020820190508181035f830152610ce1818486610c9c565b9050939250505056fea2646970667358221220f54cec6ddfbb629da0e6648d5d51d20d2181e1da84f3dd103b13f5f421b3914664736f6c634300081e0033",
  "linkReferences": {},
  "deployedLinkReferences": {},
  "immutableReferences": {},
  "inputSourceName": "project/contracts/src/oracle.sol",
  "buildInfoId": "solc-0_8_30-f9b4fe901f3e6a8194faf7f47a0640af6987b8b5"
}