{
  "_format": "hh3-artifact-1",
  "contractName": "TriggerContract",
  "sourceName": "contracts/src/trigger.sol",
  "abi": [
    {
      "inputs": [
        {
          "internalType": "address",
          "name": "oracleAddress",
          "type": "address"
        }
      ],
      "stateMutability": "nonpayable",
      "type": "constructor"
    },
    {
      "anonymous": false,
      "inputs": [
        {
          "indexed": true,
          "internalType": "uint256",
          "name": "phaseId",
          "type": "uint256"
        },
        {
          "indexed": false,
          "internalType": "string",
          "name": "name",
          "type": "string"
        },
        {
          "indexed": false,
          "internalType": "string",
          "name": "uuid",
          "type": "string"
        },
        {
          "indexed": false,
          "internalType": "uint256",
          "name": "threshold",
          "type": "uint256"
        }
      ],
      "name": "PhaseCreated",
      "type": "event"
    },
    {
      "anonymous": false,
      "inputs": [
        {
          "indexed": true,
          "internalType": "uint256",
          "name": "triggerId",
          "type": "uint256"
        }
      ],
      "name": "TriggerActivated",
      "type": "event"
    },
    {
      "anonymous": false,
      "inputs": [
        {
          "indexed": true,
          "internalType": "uint256",
          "name": "triggerId",
          "type": "uint256"
        },
        {
          "indexed": true,
          "internalType": "uint256",
          "name": "phaseId",
          "type": "uint256"
        },
        {
          "indexed": false,
          "internalType": "uint256",
          "name": "sourceId",
          "type": "uint256"
        },
        {
          "indexed": false,
          "internalType": "uint256",
          "name": "threshold",
          "type": "uint256"
        },
        {
          "indexed": false,
          "internalType": "string",
          "name": "name",
          "type": "string"
        }
      ],
      "name": "TriggerCreated",
      "type": "event"
    },
    {
      "inputs": [
        {
          "internalType": "uint256",
          "name": "triggerId",
          "type": "uint256"
        }
      ],
      "name": "activateTrigger",
      "outputs": [],
      "stateMutability": "nonpayable",
      "type": "function"
    },
    {
      "inputs": [
        {
          "internalType": "string",
          "name": "name",
          "type": "string"
        },
        {
          "internalType": "string",
          "name": "uuid",
          "type": "string"
        },
        {
          "internalType": "uint256",
          "name": "threshold",
          "type": "uint256"
        }
      ],
      "name": "createPhase",
      "outputs": [
        {
          "internalType": "uint256",
          "name": "",
          "type": "uint256"
        }
      ],
      "stateMutability": "nonpayable",
      "type": "function"
    },
    {
      "inputs": [
        {
          "internalType": "enum TriggerContract.TriggerType",
          "name": "triggerType",
          "type": "uint8"
        },
        {
          "internalType": "string",
          "name": "phaseUuid",
          "type": "string"
        },
        {
          "internalType": "string",
          "name": "triggerUuid",
          "type": "string"
        },
        {
          "internalType": "uint256",
          "name": "sourceId",
          "type": "uint256"
        },
        {
          "internalType": "uint256",
          "name": "threshold",
          "type": "uint256"
        },
        {
          "internalType": "string",
          "name": "name",
          "type": "string"
        }
      ],
      "name": "createTrigger",
      "outputs": [
        {
          "internalType": "uint256",
          "name": "",
          "type": "uint256"
        }
      ],
      "stateMutability": "nonpayable",
      "type": "function"
    },
    {
      "inputs": [
        {
          "internalType": "string",
          "name": "uuid",
          "type": "string"
        }
      ],
      "name": "getPhaseByUuid",
      "outputs": [
        {
          "components": [
            {
              "internalType": "uint256",
              "name": "id",
              "type": "uint256"
            },
            {
              "internalType": "string",
              "name": "name",
              "type": "string"
            },
            {
              "internalType": "string",
              "name": "uuid",
              "type": "string"
            },
            {
              "internalType": "uint256",
              "name": "threshold",
              "type": "uint256"
            },
            {
              "internalType": "uint256[]",
              "name": "triggerIds",
              "type": "uint256[]"
            }
          ],
          "internalType": "struct TriggerContract.Phase",
          "name": "",
          "type": "tuple"
        }
      ],
      "stateMutability": "view",
      "type": "function"
    },
    {
      "inputs": [
        {
          "internalType": "string",
          "name": "uuid",
          "type": "string"
        }
      ],
      "name": "getTriggerByUuid",
      "outputs": [
        {
          "components": [
            {
              "internalType": "uint256",
              "name": "id",
              "type": "uint256"
            },
            {
              "internalType": "enum TriggerContract.TriggerType",
              "name": "triggerType",
              "type": "uint8"
            },
            {
              "internalType": "uint256",
              "name": "phaseId",
              "type": "uint256"
            },
            {
              "internalType": "uint256",
              "name": "sourceId",
              "type": "uint256"
            },
            {
              "internalType": "uint256",
              "name": "threshold",
              "type": "uint256"
            },
            {
              "internalType": "bool",
              "name": "triggered",
              "type": "bool"
            },
            {
              "internalType": "string",
              "name": "name",
              "type": "string"
            },
            {
              "internalType": "string",
              "name": "uuid",
              "type": "string"
            }
          ],
          "internalType": "struct TriggerContract.Trigger",
          "name": "",
          "type": "tuple"
        }
      ],
      "stateMutability": "view",
      "type": "function"
    },
    {
      "inputs": [
        {
          "internalType": "string",
          "name": "phaseUuid",
          "type": "string"
        }
      ],
      "name": "isPhaseTriggered",
      "outputs": [
        {
          "internalType": "bool",
          "name": "",
          "type": "bool"
        }
      ],
      "stateMutability": "view",
      "type": "function"
    },
    {
      "inputs": [],
      "name": "nextPhaseId",
      "outputs": [
        {
          "internalType": "uint256",
          "name": "",
          "type": "uint256"
        }
      ],
      "stateMutability": "view",
      "type": "function"
    },
    {
      "inputs": [],
      "name": "nextTriggerId",
      "outputs": [
        {
          "internalType": "uint256",
          "name": "",
          "type": "uint256"
        }
      ],
      "stateMutability": "view",
      "type": "function"
    },
    {
      "inputs": [],
      "name": "oracle",
      "outputs": [
        {
          "internalType": "contract ISourceOracle",
          "name": "",
          "type": "address"
        }
      ],
      "stateMutability": "view",
      "type": "function"
    },
    {
      "inputs": [],
      "name": "owner",
      "outputs": [
        {
          "internalType": "address",
          "name": "",
          "type": "address"
        }
      ],
      "stateMutability": "view",
      "type": "function"
    },
    {
      "inputs": [
        {
          "internalType": "string",
          "name": "",
          "type": "string"
        }
      ],
      "name": "phaseByUuid",
      "outputs": [
        {
          "internalType": "uint256",
          "name": "",
          "type": "uint256"
        }
      ],
      "stateMutability": "view",
      "type": "function"
    },
    {
      "inputs": [
        {
          "internalType": "uint256",
          "name": "",
          "type": "uint256"
        }
      ],
      "name": "phases",
      "outputs": [
        {
          "internalType": "uint256",
          "name": "id",
          "type": "uint256"
        },
        {
          "internalType": "string",
          "name": "name",
          "type": "string"
        },
        {
          "internalType": "string",
          "name": "uuid",
          "type": "string"
        },
        {
          "internalType": "uint256",
          "name": "threshold",
          "type": "uint256"
        }
      ],
      "stateMutability": "view",
      "type": "function"
    },
    {
      "inputs": [
        {
          "internalType": "address",
          "name": "newOwner",
          "type": "address"
        }
      ],
      "name": "transferOwnership",
      "outputs": [],
      "stateMutability": "nonpayable",
      "type": "function"
    },
    {
      "inputs": [
        {
          "internalType": "string",
          "name": "",
          "type": "string"
        }
      ],
      "name": "triggerByUuid",
      "outputs": [
        {
          "internalType": "uint256",
          "name": "",
          "type": "uint256"
        }
      ],
      "stateMutability": "view",
      "type": "function"
    },
    {
      "inputs": [
        {
          "internalType": "uint256",
          "name": "",
          "type": "uint256"
        }
      ],
      "name": "triggers",
      "outputs": [
        {
          "internalType": "uint256",
          "name": "id",
          "type": "uint256"
        },
        {
          "internalType": "enum TriggerContract.TriggerType",
          "name": "triggerType",
          "type": "uint8"
        },
        {
          "internalType": "uint256",
          "name": "phaseId",
          "type": "uint256"
        },
        {
          "internalType": "uint256",
          "name": "sourceId",
          "type": "uint256"
        },
        {
          "internalType": "uint256",
          "name": "threshold",
          "type": "uint256"
        },
        {
          "internalType": "bool",
          "name": "triggered",
          "type": "bool"
        },
        {
          "internalType": "string",
          "name": "name",
          "type": "string"
        },
        {
          "internalType": "string",
          "name": "uuid",
          "type": "string"
        }
      ],
      "stateMutability": "view",
      "type": "function"
    }
  ],
  "bytecode": "0x608060405260016002556001600355348015610019575f5ffd5b50604051612b8c380380612b8c833981810160405281019061003b919061011e565b335f5f6101000a81548173ffffffffffffffffffffffffffffffffffffffff021916908373ffffffffffffffffffffffffffffffffffffffff1602179055508060015f6101000a81548173ffffffffffffffffffffffffffffffffffffffff021916908373ffffffffffffffffffffffffffffffffffffffff16021790555050610149565b5f5ffd5b5f73ffffffffffffffffffffffffffffffffffffffff82169050919050565b5f6100ed826100c4565b9050919050565b6100fd816100e3565b8114610107575f5ffd5b50565b5f81519050610118816100f4565b92915050565b5f60208284031215610133576101326100c0565b5b5f6101408482850161010a565b91505092915050565b612a36806101565f395ff3fe608060405234801561000f575f5ffd5b50600436106100f3575f3560e01c80638e73920111610095578063e752791111610064578063e7527911146102b5578063ec2f3fcb146102e5578063ec6064b314610315578063f2fde38b14610345576100f3565b80638e73920114610202578063a78dd42e14610232578063c67fc0a414610269578063d3af06b814610285576100f3565b806342227fa4116100d157806342227fa41461018a5780635cc64901146101a85780637dc0d1d0146101c65780638da5cb5b146101e4576100f3565b80630a8a3ffd146100f75780632e37eef6146101275780633272eaf41461015a575b5f5ffd5b610111600480360381019061010c9190611808565b610361565b60405161011e9190611869565b60405180910390f35b610141600480360381019061013c91906118b5565b61046a565b604051610151949392919061194f565b60405180910390f35b610174600480360381019061016f91906119a0565b6105a2565b6040516101819190611a28565b60405180910390f35b610192610789565b60405161019f9190611a28565b60405180910390f35b6101b061078f565b6040516101bd9190611a28565b60405180910390f35b6101ce610795565b6040516101db9190611abb565b60405180910390f35b6101ec6107ba565b6040516101f99190611af4565b60405180910390f35b61021c60048036038101906102179190611808565b6107de565b6040516102299190611c9a565b60405180910390f35b61024c600480360381019061024791906118b5565b610a0a565b604051610260989796959493929190611cc9565b60405180910390f35b610283600480360381019061027e91906118b5565b610b72565b005b61029f600480360381019061029a9190611808565b610e22565b6040516102ac9190611a28565b60405180910390f35b6102cf60048036038101906102ca9190611d76565b610e4f565b6040516102dc9190611a28565b60405180910390f35b6102ff60048036038101906102fa9190611808565b6112b7565b60405161030c9190611a28565b60405180910390f35b61032f600480360381019061032a9190611808565b6112e4565b60405161033c9190611f7c565b60405180910390f35b61035f600480360381019061035a9190611fc6565b6114fd565b005b5f5f600683604051610373919061202b565b90815260200160405180910390205490505f81036103c6576040517f08c379a00000000000000000000000000000000000000000000000000000000081526004016103bd9061208b565b60405180910390fd5b5f60055f8381526020019081526020015f2090505f5f90505f5f90505b8260040180549050811015610457575f836004018281548110610409576104086120a9565b5b905f5260205f200154905060045f8281526020019081526020015f206005015f9054906101000a900460ff161561044957828061044590612103565b9350505b5080806001019150506103e3565b5081600301548110159350505050919050565b6005602052805f5260405f205f91509050805f01549080600101805461048f90612177565b80601f01602080910402602001604051908101604052809291908181526020018280546104bb90612177565b80156105065780601f106104dd57610100808354040283529160200191610506565b820191905f5260205f20905b8154815290600101906020018083116104e957829003601f168201915b50505050509080600201805461051b90612177565b80601f016020809104026020016040519081016040528092919081815260200182805461054790612177565b80156105925780601f1061056957610100808354040283529160200191610592565b820191905f5260205f20905b81548152906001019060200180831161057557829003601f168201915b5050505050908060030154905084565b5f5f5f9054906101000a900473ffffffffffffffffffffffffffffffffffffffff1673ffffffffffffffffffffffffffffffffffffffff163373ffffffffffffffffffffffffffffffffffffffff1614610631576040517f08c379a0000000000000000000000000000000000000000000000000000000008152600401610628906121f1565b60405180910390fd5b5f600684604051610642919061202b565b90815260200160405180910390205414610691576040517f08c379a000000000000000000000000000000000000000000000000000000000815260040161068890612259565b60405180910390fd5b5f60035f8154809291906106a490612103565b9190505590508060055f8381526020019081526020015f205f01819055508460055f8381526020019081526020015f2060010190816106e3919061240e565b508360055f8381526020019081526020015f206002019081610705919061240e565b508260055f8381526020019081526020015f206003018190555080600685604051610730919061202b565b908152602001604051809103902081905550807fd97bc1983b69a9e9fa0f40f91901f44f6563e40a28d1c3316e78d0ba0c5ef275868686604051610776939291906124dd565b60405180910390a2809150509392505050565b60025481565b60035481565b60015f9054906101000a900473ffffffffffffffffffffffffffffffffffffffff1681565b5f5f9054906101000a900473ffffffffffffffffffffffffffffffffffffffff1681565b6107e661163b565b5f6007836040516107f7919061202b565b90815260200160405180910390205490505f810361084a576040517f08c379a00000000000000000000000000000000000000000000000000000000081526004016108419061256a565b60405180910390fd5b60045f8281526020019081526020015f20604051806101000160405290815f8201548152602001600182015f9054906101000a900460ff16600181111561089457610893611b1c565b5b60018111156108a6576108a5611b1c565b5b8152602001600282015481526020016003820154815260200160048201548152602001600582015f9054906101000a900460ff161515151581526020016006820180546108f290612177565b80601f016020809104026020016040519081016040528092919081815260200182805461091e90612177565b80156109695780601f1061094057610100808354040283529160200191610969565b820191905f5260205f20905b81548152906001019060200180831161094c57829003601f168201915b5050505050815260200160078201805461098290612177565b80601f01602080910402602001604051908101604052809291908181526020018280546109ae90612177565b80156109f95780601f106109d0576101008083540402835291602001916109f9565b820191905f5260205f20905b8154815290600101906020018083116109dc57829003601f168201915b505050505081525050915050919050565b6004602052805f5260405f205f91509050805f015490806001015f9054906101000a900460ff1690806002015490806003015490806004015490806005015f9054906101000a900460ff1690806006018054610a6590612177565b80601f0160208091040260200160405190810160405280929190818152602001828054610a9190612177565b8015610adc5780601f10610ab357610100808354040283529160200191610adc565b820191905f5260205f20905b815481529060010190602001808311610abf57829003601f168201915b505050505090806007018054610af190612177565b80601f0160208091040260200160405190810160405280929190818152602001828054610b1d90612177565b8015610b685780601f10610b3f57610100808354040283529160200191610b68565b820191905f5260205f20905b815481529060010190602001808311610b4b57829003601f168201915b5050505050905088565b5f5f9054906101000a900473ffffffffffffffffffffffffffffffffffffffff1673ffffffffffffffffffffffffffffffffffffffff163373ffffffffffffffffffffffffffffffffffffffff1614610c00576040517f08c379a0000000000000000000000000000000000000000000000000000000008152600401610bf7906121f1565b60405180910390fd5b5f60045f8381526020019081526020015f2090505f815f015403610c59576040517f08c379a0000000000000000000000000000000000000000000000000000000008152600401610c509061256a565b60405180910390fd5b806005015f9054906101000a900460ff1615610caa576040517f08c379a0000000000000000000000000000000000000000000000000000000008152600401610ca1906125d2565b60405180910390fd5b600180811115610cbd57610cbc611b1c565b5b816001015f9054906101000a900460ff166001811115610ce057610cdf611b1c565b5b03610dd5575f60015f9054906101000a900473ffffffffffffffffffffffffffffffffffffffff1673ffffffffffffffffffffffffffffffffffffffff1663f1f99f2c83600301546040518263ffffffff1660e01b8152600401610d449190611a28565b5f60405180830381865afa158015610d5e573d5f5f3e3d5ffd5b505050506040513d5f823e3d601f19601f82011682018060405250810190610d86919061274f565b9050816004015481604001511015610dd3576040517f08c379a0000000000000000000000000000000000000000000000000000000008152600401610dca906127e0565b60405180910390fd5b505b6001816005015f6101000a81548160ff021916908315150217905550817fe609f7e31c57c33e383f8a18c65557fc4a456f123e05cbf4fc5413791772036a60405160405180910390a25050565b6006818051602081018201805184825260208301602085012081835280955050505050505f915090505481565b5f5f5f9054906101000a900473ffffffffffffffffffffffffffffffffffffffff1673ffffffffffffffffffffffffffffffffffffffff163373ffffffffffffffffffffffffffffffffffffffff1614610ede576040517f08c379a0000000000000000000000000000000000000000000000000000000008152600401610ed5906121f1565b60405180910390fd5b5f600786604051610eef919061202b565b90815260200160405180910390205414610f3e576040517f08c379a0000000000000000000000000000000000000000000000000000000008152600401610f3590612848565b60405180910390fd5b5f600687604051610f4f919061202b565b90815260200160405180910390205490505f8103610fa2576040517f08c379a0000000000000000000000000000000000000000000000000000000008152600401610f999061208b565b60405180910390fd5b600180811115610fb557610fb4611b1c565b5b886001811115610fc857610fc7611b1c565b5b036110f5575f850361100f576040517f08c379a0000000000000000000000000000000000000000000000000000000008152600401611006906128d6565b60405180910390fd5b5f60015f9054906101000a900473ffffffffffffffffffffffffffffffffffffffff1673ffffffffffffffffffffffffffffffffffffffff1663f1f99f2c876040518263ffffffff1660e01b815260040161106a9190611a28565b5f60405180830381865afa158015611084573d5f5f3e3d5ffd5b505050506040513d5f823e3d601f19601f820116820180604052508101906110ac919061274f565b90505f815f0151036110f3576040517f08c379a00000000000000000000000000000000000000000000000000000000081526004016110ea9061293e565b60405180910390fd5b505b5f60025f81548092919061110890612103565b9190505590506040518061010001604052808281526020018a600181111561113357611132611b1c565b5b81526020018381526020018781526020018681526020015f151581526020018581526020018881525060045f8381526020019081526020015f205f820151815f01556020820151816001015f6101000a81548160ff0219169083600181111561119f5761119e611b1c565b5b021790555060408201518160020155606082015181600301556080820151816004015560a0820151816005015f6101000a81548160ff02191690831515021790555060c08201518160060190816111f6919061240e565b5060e082015181600701908161120c919061240e565b5090505060055f8381526020019081526020015f2060040181908060018154018082558091505060019003905f5260205f20015f909190919091505580600788604051611259919061202b565b90815260200160405180910390208190555081817f2e5bb2fa54479385d323c0648f2d32d3db431d354ec2ceaa81a7f33a9512b2458888886040516112a09392919061295c565b60405180910390a380925050509695505050505050565b6007818051602081018201805184825260208301602085012081835280955050505050505f915090505481565b6112ec61168e565b5f6006836040516112fd919061202b565b90815260200160405180910390205490505f8103611350576040517f08c379a00000000000000000000000000000000000000000000000000000000081526004016113479061208b565b60405180910390fd5b60055f8281526020019081526020015f206040518060a00160405290815f820154815260200160018201805461138590612177565b80601f01602080910402602001604051908101604052809291908181526020018280546113b190612177565b80156113fc5780601f106113d3576101008083540402835291602001916113fc565b820191905f5260205f20905b8154815290600101906020018083116113df57829003601f168201915b5050505050815260200160028201805461141590612177565b80601f016020809104026020016040519081016040528092919081815260200182805461144190612177565b801561148c5780601f106114635761010080835404028352916020019161148c565b820191905f5260205f20905b81548152906001019060200180831161146f57829003601f168201915b5050505050815260200160038201548152602001600482018054806020026020016040519081016040528092919081815260200182805480156114ec57602002820191905f5260205f20905b8154815260200190600101908083116114d8575b505050505081525050915050919050565b5f5f9054906101000a900473ffffffffffffffffffffffffffffffffffffffff1673ffffffffffffffffffffffffffffffffffffffff163373ffffffffffffffffffffffffffffffffffffffff161461158b576040517f08c379a0000000000000000000000000000000000000000000000000000000008152600401611582906121f1565b60405180910390fd5b5f73ffffffffffffffffffffffffffffffffffffffff168173ffffffffffffffffffffffffffffffffffffffff16036115f9576040517f08c379a00000000000000000000000000000000000000000000000000000000081526004016115f0906129e2565b60405180910390fd5b805f5f6101000a81548173ffffffffffffffffffffffffffffffffffffffff021916908373ffffffffffffffffffffffffffffffffffffffff16021790555050565b6040518061010001604052805f81526020015f60018111156116605761165f611b1c565b5b81526020015f81526020015f81526020015f81526020015f1515815260200160608152602001606081525090565b6040518060a001604052805f815260200160608152602001606081526020015f8152602001606081525090565b5f604051905090565b5f5ffd5b5f5ffd5b5f5ffd5b5f5ffd5b5f601f19601f8301169050919050565b7f4e487b71000000000000000000000000000000000000000000000000000000005f52604160045260245ffd5b61171a826116d4565b810181811067ffffffffffffffff82111715611739576117386116e4565b5b80604052505050565b5f61174b6116bb565b90506117578282611711565b919050565b5f67ffffffffffffffff821115611776576117756116e4565b5b61177f826116d4565b9050602081019050919050565b828183375f83830152505050565b5f6117ac6117a78461175c565b611742565b9050828152602081018484840111156117c8576117c76116d0565b5b6117d384828561178c565b509392505050565b5f82601f8301126117ef576117ee6116cc565b5b81356117ff84826020860161179a565b91505092915050565b5f6020828403121561181d5761181c6116c4565b5b5f82013567ffffffffffffffff81111561183a576118396116c8565b5b611846848285016117db565b91505092915050565b5f8115159050919050565b6118638161184f565b82525050565b5f60208201905061187c5f83018461185a565b92915050565b5f819050919050565b61189481611882565b811461189e575f5ffd5b50565b5f813590506118af8161188b565b92915050565b5f602082840312156118ca576118c96116c4565b5b5f6118d7848285016118a1565b91505092915050565b6118e981611882565b82525050565b5f81519050919050565b5f82825260208201905092915050565b8281835e5f83830152505050565b5f611921826118ef565b61192b81856118f9565b935061193b818560208601611909565b611944816116d4565b840191505092915050565b5f6080820190506119625f8301876118e0565b81810360208301526119748186611917565b905081810360408301526119888185611917565b905061199760608301846118e0565b95945050505050565b5f5f5f606084860312156119b7576119b66116c4565b5b5f84013567ffffffffffffffff8111156119d4576119d36116c8565b5b6119e0868287016117db565b935050602084013567ffffffffffffffff811115611a0157611a006116c8565b5b611a0d868287016117db565b9250506040611a1e868287016118a1565b9150509250925092565b5f602082019050611a3b5f8301846118e0565b92915050565b5f73ffffffffffffffffffffffffffffffffffffffff82169050919050565b5f819050919050565b5f611a83611a7e611a7984611a41565b611a60565b611a41565b9050919050565b5f611a9482611a69565b9050919050565b5f611aa582611a8a565b9050919050565b611ab581611a9b565b82525050565b5f602082019050611ace5f830184611aac565b92915050565b5f611ade82611a41565b9050919050565b611aee81611ad4565b82525050565b5f602082019050611b075f830184611ae5565b92915050565b611b1681611882565b82525050565b7f4e487b71000000000000000000000000000000000000000000000000000000005f52602160045260245ffd5b60028110611b5a57611b59611b1c565b5b50565b5f819050611b6a82611b49565b919050565b5f611b7982611b5d565b9050919050565b611b8981611b6f565b82525050565b611b988161184f565b82525050565b5f82825260208201905092915050565b5f611bb8826118ef565b611bc28185611b9e565b9350611bd2818560208601611909565b611bdb816116d4565b840191505092915050565b5f61010083015f830151611bfc5f860182611b0d565b506020830151611c0f6020860182611b80565b506040830151611c226040860182611b0d565b506060830151611c356060860182611b0d565b506080830151611c486080860182611b0d565b5060a0830151611c5b60a0860182611b8f565b5060c083015184820360c0860152611c738282611bae565b91505060e083015184820360e0860152611c8d8282611bae565b9150508091505092915050565b5f6020820190508181035f830152611cb28184611be6565b905092915050565b611cc381611b6f565b82525050565b5f61010082019050611cdd5f83018b6118e0565b611cea602083018a611cba565b611cf760408301896118e0565b611d0460608301886118e0565b611d1160808301876118e0565b611d1e60a083018661185a565b81810360c0830152611d308185611917565b905081810360e0830152611d448184611917565b90509998505050505050505050565b60028110611d5f575f5ffd5b50565b5f81359050611d7081611d53565b92915050565b5f5f5f5f5f5f60c08789031215611d9057611d8f6116c4565b5b5f611d9d89828a01611d62565b965050602087013567ffffffffffffffff811115611dbe57611dbd6116c8565b5b611dca89828a016117db565b955050604087013567ffffffffffffffff811115611deb57611dea6116c8565b5b611df789828a016117db565b9450506060611e0889828a016118a1565b9350506080611e1989828a016118a1565b92505060a087013567ffffffffffffffff811115611e3a57611e396116c8565b5b611e4689828a016117db565b9150509295509295509295565b5f81519050919050565b5f82825260208201905092915050565b5f819050602082019050919050565b5f611e878383611b0d565b60208301905092915050565b5f602082019050919050565b5f611ea982611e53565b611eb38185611e5d565b9350611ebe83611e6d565b805f5b83811015611eee578151611ed58882611e7c565b9750611ee083611e93565b925050600181019050611ec1565b5085935050505092915050565b5f60a083015f830151611f105f860182611b0d565b5060208301518482036020860152611f288282611bae565b91505060408301518482036040860152611f428282611bae565b9150506060830151611f576060860182611b0d565b5060808301518482036080860152611f6f8282611e9f565b9150508091505092915050565b5f6020820190508181035f830152611f948184611efb565b905092915050565b611fa581611ad4565b8114611faf575f5ffd5b50565b5f81359050611fc081611f9c565b92915050565b5f60208284031215611fdb57611fda6116c4565b5b5f611fe884828501611fb2565b91505092915050565b5f81905092915050565b5f612005826118ef565b61200f8185611ff1565b935061201f818560208601611909565b80840191505092915050565b5f6120368284611ffb565b915081905092915050565b7f7068617365206e6f7420666f756e6400000000000000000000000000000000005f82015250565b5f612075600f836118f9565b915061208082612041565b602082019050919050565b5f6020820190508181035f8301526120a281612069565b9050919050565b7f4e487b71000000000000000000000000000000000000000000000000000000005f52603260045260245ffd5b7f4e487b71000000000000000000000000000000000000000000000000000000005f52601160045260245ffd5b5f61210d82611882565b91507fffffffffffffffffffffffffffffffffffffffffffffffffffffffffffffffff820361213f5761213e6120d6565b5b600182019050919050565b7f4e487b71000000000000000000000000000000000000000000000000000000005f52602260045260245ffd5b5f600282049050600182168061218e57607f821691505b6020821081036121a1576121a061214a565b5b50919050565b7f6e6f74206f776e657200000000000000000000000000000000000000000000005f82015250565b5f6121db6009836118f9565b91506121e6826121a7565b602082019050919050565b5f6020820190508181035f830152612208816121cf565b9050919050565b7f7575696420616c726561647920657869737473000000000000000000000000005f82015250565b5f6122436013836118f9565b915061224e8261220f565b602082019050919050565b5f6020820190508181035f83015261227081612237565b9050919050565b5f819050815f5260205f209050919050565b5f6020601f8301049050919050565b5f82821b905092915050565b5f600883026122d37fffffffffffffffffffffffffffffffffffffffffffffffffffffffffffffffff82612298565b6122dd8683612298565b95508019841693508086168417925050509392505050565b5f61230f61230a61230584611882565b611a60565b611882565b9050919050565b5f819050919050565b612328836122f5565b61233c61233482612316565b8484546122a4565b825550505050565b5f5f905090565b612353612344565b61235e81848461231f565b505050565b5b81811015612381576123765f8261234b565b600181019050612364565b5050565b601f8211156123c65761239781612277565b6123a084612289565b810160208510156123af578190505b6123c36123bb85612289565b830182612363565b50505b505050565b5f82821c905092915050565b5f6123e65f19846008026123cb565b1980831691505092915050565b5f6123fe83836123d7565b9150826002028217905092915050565b612417826118ef565b67ffffffffffffffff8111156124305761242f6116e4565b5b61243a8254612177565b612445828285612385565b5f60209050601f831160018114612476575f8415612464578287015190505b61246e85826123f3565b8655506124d5565b601f19841661248486612277565b5f5b828110156124ab57848901518255600182019150602085019450602081019050612486565b868310156124c857848901516124c4601f8916826123d7565b8355505b6001600288020188555050505b505050505050565b5f6060820190508181035f8301526124f58186611917565b905081810360208301526125098185611917565b905061251860408301846118e0565b949350505050565b7f74726967676572206e6f7420666f756e640000000000000000000000000000005f82015250565b5f6125546011836118f9565b915061255f82612520565b602082019050919050565b5f6020820190508181035f83015261258181612548565b9050919050565b7f616c7265616479207472696767657265640000000000000000000000000000005f82015250565b5f6125bc6011836118f9565b91506125c782612588565b602082019050919050565b5f6020820190508181035f8301526125e9816125b0565b9050919050565b5f5ffd5b5f5ffd5b5f815190506126068161188b565b92915050565b5f61261e6126198461175c565b611742565b90508281526020810184848401111561263a576126396116d0565b5b612645848285611909565b509392505050565b5f82601f830112612661576126606116cc565b5b815161267184826020860161260c565b91505092915050565b5f60c0828403121561268f5761268e6125f0565b5b61269960c0611742565b90505f6126a8848285016125f8565b5f83015250602082015167ffffffffffffffff8111156126cb576126ca6125f4565b5b6126d78482850161264d565b60208301525060406126eb848285016125f8565b60408301525060606126ff848285016125f8565b606083015250608082015167ffffffffffffffff811115612723576127226125f4565b5b61272f8482850161264d565b60808301525060a0612743848285016125f8565b60a08301525092915050565b5f60208284031215612764576127636116c4565b5b5f82015167ffffffffffffffff811115612781576127806116c8565b5b61278d8482850161267a565b91505092915050565b7f7468726573686f6c64206e6f74207265616368656400000000000000000000005f82015250565b5f6127ca6015836118f9565b91506127d582612796565b602082019050919050565b5f6020820190508181035f8301526127f7816127be565b9050919050565b7f74726967676572207575696420616c72656164792065786973747300000000005f82015250565b5f612832601b836118f9565b915061283d826127fe565b602082019050919050565b5f6020820190508181035f83015261285f81612826565b9050919050565b7f736f75726365496420726571756972656420666f72206175746f6d61746963205f8201527f7472696767657200000000000000000000000000000000000000000000000000602082015250565b5f6128c06027836118f9565b91506128cb82612866565b604082019050919050565b5f6020820190508181035f8301526128ed816128b4565b9050919050565b7f736f7572636520646f65736e27742065786973740000000000000000000000005f82015250565b5f6129286014836118f9565b9150612933826128f4565b602082019050919050565b5f6020820190508181035f8301526129558161291c565b9050919050565b5f60608201905061296f5f8301866118e0565b61297c60208301856118e0565b818103604083015261298e8184611917565b9050949350505050565b7f696e76616c6964206f776e6572000000000000000000000000000000000000005f82015250565b5f6129cc600d836118f9565b91506129d782612998565b602082019050919050565b5f6020820190508181035f8301526129f9816129c0565b905091905056fea2646970667358221220b70d401c548cc79d3c9b83aa5b9707ad2aabe332bae54d7319c2b5c4b292960e64736f6c634300081e0033",
  "linkReferences": {},
  "deployedLinkReferences": {},
  "immutableReferences": {},
  "inputSourceName": "project/contracts/src/trigger.sol",
  "buildInfoId": "solc-0_8_30-cc47aa5ea654e87d1270e433509e2ea3c7f9e6ac"
}